{
  "contractName": "SimpleBank",
  "abi": [
    {
      "inputs": [],
      "payable": false,
      "stateMutability": "nonpayable",
      "type": "constructor"
    },
    {
      "anonymous": false,
      "inputs": [
        {
          "indexed": false,
          "internalType": "address",
          "name": "_address",
          "type": "address"
        },
        {
          "indexed": false,
          "internalType": "uint256",
          "name": "_amount",
          "type": "uint256"
        }
      ],
      "name": "LogDepositMade",
      "type": "event"
    },
    {
      "anonymous": false,
      "inputs": [
        {
          "indexed": false,
          "internalType": "address",
          "name": "_address",
          "type": "address"
        }
      ],
      "name": "LogEnrolled",
      "type": "event"
    },
    {
      "anonymous": false,
      "inputs": [
        {
          "indexed": false,
          "internalType": "address",
          "name": "_address",
          "type": "address"
        },
        {
          "indexed": false,
          "internalType": "uint256",
          "name": "_withdrawAmount",
          "type": "uint256"
        },
        {
          "indexed": false,
          "internalType": "uint256",
          "name": "_newBalance",
          "type": "uint256"
        }
      ],
      "name": "LogWithdrawal",
      "type": "event"
    },
    {
      "constant": true,
      "inputs": [
        {
          "internalType": "address",
          "name": "",
          "type": "address"
        }
      ],
      "name": "enrolled",
      "outputs": [
        {
          "internalType": "bool",
          "name": "",
          "type": "bool"
        }
      ],
      "payable": false,
      "stateMutability": "view",
      "type": "function"
    },
    {
      "constant": true,
      "inputs": [],
      "name": "owner",
      "outputs": [
        {
          "internalType": "address",
          "name": "",
          "type": "address"
        }
      ],
      "payable": false,
      "stateMutability": "view",
      "type": "function"
    },
    {
      "constant": true,
      "inputs": [],
      "name": "test123",
      "outputs": [
        {
          "internalType": "string",
          "name": "",
          "type": "string"
        }
      ],
      "payable": false,
      "stateMutability": "view",
      "type": "function"
    },
    {
      "constant": false,
      "inputs": [],
      "name": "getBalance",
      "outputs": [
        {
          "internalType": "uint256",
          "name": "",
          "type": "uint256"
        }
      ],
      "payable": false,
      "stateMutability": "nonpayable",
      "type": "function"
    },
    {
      "constant": false,
      "inputs": [],
      "name": "enroll",
      "outputs": [
        {
          "internalType": "bool",
          "name": "",
          "type": "bool"
        }
      ],
      "payable": false,
      "stateMutability": "nonpayable",
      "type": "function"
    },
    {
      "constant": false,
      "inputs": [],
      "name": "deposit",
      "outputs": [
        {
          "internalType": "uint256",
          "name": "",
          "type": "uint256"
        }
      ],
      "payable": true,
      "stateMutability": "payable",
      "type": "function"
    },
    {
      "constant": false,
      "inputs": [
        {
          "internalType": "uint256",
          "name": "withdrawAmount",
          "type": "uint256"
        }
      ],
      "name": "withdraw",
      "outputs": [
        {
          "internalType": "uint256",
          "name": "",
          "type": "uint256"
        }
      ],
      "payable": false,
      "stateMutability": "nonpayable",
      "type": "function"
    },
    {
      "constant": false,
      "inputs": [],
      "name": "test",
      "outputs": [
        {
          "internalType": "string",
          "name": "",
          "type": "string"
        }
      ],
      "payable": false,
      "stateMutability": "nonpayable",
      "type": "function"
    }
  ],
  "bytecode": "0x608060405233600360006101000a81548173ffffffffffffffffffffffffffffffffffffffff021916908373ffffffffffffffffffffffffffffffffffffffff16021790555034801561005157600080fd5b506040518060400160405280600981526020017f73646661736466617300000000000000000000000000000000000000000000008152506002908051906020019061009d9291906100a3565b50610148565b828054600181600116156101000203166002900490600052602060002090601f016020900481019282601f106100e457805160ff1916838001178555610112565b82800160010185558215610112579182015b828111156101115782518255916020019190600101906100f6565b5b50905061011f9190610123565b5090565b61014591905b80821115610141576000816000905550600101610129565b5090565b90565b610988806101576000396000f3fe60806040526004361061007b5760003560e01c8063b90c40341161004e578063b90c4034146101ba578063d0e30db01461024a578063e65f2a7e14610268578063f8a8fd6d146102975761007b565b806310eb0e0e1461008057806312065fe0146100e95780632e1a7d4d146101145780638da5cb5b14610163575b600080fd5b34801561008c57600080fd5b506100cf600480360360208110156100a357600080fd5b81019080803573ffffffffffffffffffffffffffffffffffffffff169060200190929190505050610327565b604051808215151515815260200191505060405180910390f35b3480156100f557600080fd5b506100fe610347565b6040518082815260200191505060405180910390f35b34801561012057600080fd5b5061014d6004803603602081101561013757600080fd5b810190808035906020019092919050505061038d565b6040518082815260200191505060405180910390f35b34801561016f57600080fd5b5061017861055e565b604051808273ffffffffffffffffffffffffffffffffffffffff1673ffffffffffffffffffffffffffffffffffffffff16815260200191505060405180910390f35b3480156101c657600080fd5b506101cf610584565b6040518080602001828103825283818151815260200191508051906020019080838360005b8381101561020f5780820151818401526020810190506101f4565b50505050905090810190601f16801561023c5780820380516001836020036101000a031916815260200191505b509250505060405180910390f35b610252610622565b6040518082815260200191505060405180910390f35b34801561027457600080fd5b5061027d6107e5565b604051808215151515815260200191505060405180910390f35b3480156102a357600080fd5b506102ac610890565b6040518080602001828103825283818151815260200191508051906020019080838360005b838110156102ec5780820151818401526020810190506102d1565b50505050905090810190601f1680156103195780820380516001836020036101000a031916815260200191505b509250505060405180910390f35b60016020528060005260406000206000915054906101000a900460ff1681565b60008060003373ffffffffffffffffffffffffffffffffffffffff1673ffffffffffffffffffffffffffffffffffffffff16815260200190815260200160002054905090565b6000816000803373ffffffffffffffffffffffffffffffffffffffff1673ffffffffffffffffffffffffffffffffffffffff1681526020019081526020016000205411610425576040517f08c379a00000000000000000000000000000000000000000000000000000000081526004018080602001828103825260218152602001806109336021913960400191505060405180910390fd5b816000803373ffffffffffffffffffffffffffffffffffffffff1673ffffffffffffffffffffffffffffffffffffffff16815260200190815260200160002054036000803373ffffffffffffffffffffffffffffffffffffffff1673ffffffffffffffffffffffffffffffffffffffff168152602001908152602001600020819055507ff9226daf630542048a23086c6af599511aac100ec8f532793cc9697d061bed7e33836000803373ffffffffffffffffffffffffffffffffffffffff1673ffffffffffffffffffffffffffffffffffffffff16815260200190815260200160002054604051808473ffffffffffffffffffffffffffffffffffffffff1673ffffffffffffffffffffffffffffffffffffffff168152602001838152602001828152602001935050505060405180910390a1919050565b600360009054906101000a900473ffffffffffffffffffffffffffffffffffffffff1681565b60028054600181600116156101000203166002900480601f01602080910402602001604051908101604052809291908181526020018280546001816001161561010002031660029004801561061a5780601f106105ef5761010080835404028352916020019161061a565b820191906000526020600020905b8154815290600101906020018083116105fd57829003601f168201915b505050505081565b600060011515600160003373ffffffffffffffffffffffffffffffffffffffff1673ffffffffffffffffffffffffffffffffffffffff16815260200190815260200160002060009054906101000a900460ff161515146106ea576040517f08c379a00000000000000000000000000000000000000000000000000000000081526004018080602001828103825260118152602001807f55736572206e6f7420656e726f6c6c656400000000000000000000000000000081525060200191505060405180910390fd5b346000803373ffffffffffffffffffffffffffffffffffffffff1673ffffffffffffffffffffffffffffffffffffffff16815260200190815260200160002054016000803373ffffffffffffffffffffffffffffffffffffffff1673ffffffffffffffffffffffffffffffffffffffff168152602001908152602001600020819055507fa8126f7572bb1fdeae5b5aa9ec126438b91f658a07873f009d041ae690f3a1933334604051808373ffffffffffffffffffffffffffffffffffffffff1673ffffffffffffffffffffffffffffffffffffffff1681526020018281526020019250505060405180910390a16107e0610347565b905090565b600060018060003373ffffffffffffffffffffffffffffffffffffffff1673ffffffffffffffffffffffffffffffffffffffff16815260200190815260200160002060006101000a81548160ff021916908315150217905550600160003373ffffffffffffffffffffffffffffffffffffffff1673ffffffffffffffffffffffffffffffffffffffff16815260200190815260200160002060009054906101000a900460ff16905090565b606060028054600181600116156101000203166002900480601f0160208091040260200160405190810160405280929190818152602001828054600181600116156101000203166002900480156109285780601f106108fd57610100808354040283529160200191610928565b820191906000526020600020905b81548152906001019060200180831161090b57829003601f168201915b505050505090509056fe42616c616e6365206c657373207468616e20776974686472617720416d6f756e74a265627a7a723158204d00854cbbdc682baf8f99318c2e5d74e44493fc688c0199a0a1e3c565a90d5f64736f6c63430005100032",
  "source": "/*\r\n * This exercise has been updated to use Solidity version 0.8.5\r\n * See the latest Solidity updates at\r\n * https://solidity.readthedocs.io/en/latest/080-breaking-changes.html\r\n */\r\n// SPDX-License-Identifier: MIT\r\npragma solidity >=0.5.16 <0.9.0;\r\n\r\ncontract SimpleBank {\r\n\r\n    /* State variables\r\n     */\r\n    \r\n    \r\n    // Fill in the visibility keyword. \r\n    // Hint: We want to protect our users balance from other contracts\r\n    mapping (address => uint) internal balances ;\r\n    \r\n    // Fill in the visibility keyword\r\n    // Hint: We want to create a getter function and allow contracts to be able\r\n    //       to see if a user is enrolled.\r\n    mapping (address => bool) public enrolled;\r\n\r\n    string public test123;\r\n\r\n    constructor() public{\r\n      test123=\"sdfasdfas\";\r\n    }\r\n\r\n    // Let's make sure everyone knows who owns the bank, yes, fill in the\r\n    // appropriate visilibility keyword\r\n    address public owner = msg.sender;\r\n    \r\n    /* Events - publicize actions to external listeners\r\n     */\r\n    \r\n    // Add an argument for this event, an accountAddress\r\n    event LogEnrolled(address _address);\r\n\r\n    // Add 2 arguments for this event, an accountAddress and an amount\r\n    event LogDepositMade(address _address, uint256 _amount);\r\n\r\n    // Create an event called LogWithdrawal\r\n    // Hint: it should take 3 arguments: an accountAddress, withdrawAmount and a newBalance \r\n    event LogWithdrawal(address _address, uint256 _withdrawAmount, uint256 _newBalance);\r\n\r\n    /* Functions\r\n     */\r\n\r\n    // Fallback function - Called if other functions don't match call or\r\n    // sent ether without data\r\n    // Typically, called when invalid data is sent\r\n    // Added so ether sent to this contract is reverted if the contract fails\r\n    // otherwise, the sender's money is transferred to contract\r\n    //  fallback() external payable {\r\n    //     revert();\r\n    // }\r\n\r\n    /// @notice Get balance\r\n    /// @return The balance of the user\r\n    function getBalance() public returns (uint) {\r\n      // 1. A SPECIAL KEYWORD prevents function from editing state variables;\r\n      //    allows function to run locally/off blockchain\r\n      // 2. Get the balance of the sender of this transaction\r\n      return balances[msg.sender];\r\n    }\r\n\r\n    /// @notice Enroll a customer with the bank\r\n    /// @return The users enrolled status\r\n    // Emit the appropriate event\r\n    function enroll() public returns (bool){\r\n      // 1. enroll of the sender of this transaction\r\n      enrolled[msg.sender]=true;\r\n      return enrolled[msg.sender];\r\n    }\r\n\r\n    /// @notice Deposit ether into bank\r\n    /// @return The balance of the user after the deposit is made\r\n    function deposit() public payable returns (uint) {\r\n      // 1. Add the appropriate keyword so that this function can receive ether\r\n    \r\n      // 2. Users should be enrolled before they can make deposits\r\n      require(enrolled[msg.sender]==true,\"User not enrolled\");\r\n      // 3. Add the amount to the user's balance. Hint: the amount can be\r\n      //    accessed from of the global variable `msg`\r\n      balances[msg.sender]=balances[msg.sender]+msg.value;\r\n      // 4. Emit the appropriate event associated with this function\r\n      emit LogDepositMade(msg.sender,msg.value);\r\n      // 5. return the balance of sndr of this transaction\r\n      return getBalance();\r\n    }\r\n\r\n    /// @notice Withdraw ether from bank\r\n    /// @dev This does not return any excess ether sent to it\r\n    /// @param withdrawAmount amount you want to withdraw\r\n    /// @return The balance remaining for the user\r\n    function withdraw(uint withdrawAmount) public returns (uint) {\r\n      // If the sender's balance is at least the amount they want to withdraw,\r\n      // Subtract the amount from the sender's balance, and try to send that amount of ether\r\n      // to the user attempting to withdraw. \r\n      // return the user's balance.\r\n\r\n      // 1. Use a require expression to guard/ensure sender has enough funds\r\n      require(balances[msg.sender]>withdrawAmount,\"Balance less than withdraw Amount\");\r\n      // 2. Transfer Eth to the sender and decrement the withdrawal amount from\r\n      //    sender's balance\r\n      balances[msg.sender]=balances[msg.sender]-withdrawAmount;\r\n      // 3. Emit the appropriate event for this message\r\n      emit LogWithdrawal(msg.sender,withdrawAmount,balances[msg.sender]);\r\n    }\r\n\r\n    function test() public returns ( string memory ){\r\n      return test123;\r\n    }\r\n}\r\n",
  "sourcePath": "C:\\Users\\Accut\\github-classroom\\ConsenSys-Academy-Github-Classroom\\simple-bank-exercise-HengTat\\contracts\\SimpleBank.sol",
  "compiler": {
    "name": "solc",
    "version": "0.5.16+commit.9c3226ce.Emscripten.clang"
  },
  "schemaVersion": "3.4.3",
  "updatedAt": "2021-11-15T10:17:51.618Z",
  "devdoc": {
    "methods": {
      "deposit()": {
        "return": "The balance of the user after the deposit is made"
      },
      "enroll()": {
        "return": "The users enrolled status"
      },
      "getBalance()": {
        "return": "The balance of the user"
      },
      "withdraw(uint256)": {
        "details": "This does not return any excess ether sent to it",
        "params": {
          "withdrawAmount": "amount you want to withdraw"
        },
        "return": "The balance remaining for the user"
      }
    }
  },
  "userdoc": {
    "methods": {
      "deposit()": {
        "notice": "Deposit ether into bank"
      },
      "enroll()": {
        "notice": "Enroll a customer with the bank"
      },
      "getBalance()": {
        "notice": "Get balance"
      },
      "withdraw(uint256)": {
        "notice": "Withdraw ether from bank"
      }
    }
  }
}